{
  "abi": [
    {
      "type": "constructor",
      "inputs": [
        {
          "name": "_seeder",
          "type": "address",
          "internalType": "address"
        },
        {
          "name": "_descriptor",
          "type": "address",
          "internalType": "address"
        }
      ],
      "stateMutability": "nonpayable"
    },
    {
      "type": "function",
      "name": "approve",
      "inputs": [
        {
          "name": "to",
          "type": "address",
          "internalType": "address"
        },
        {
          "name": "tokenId",
          "type": "uint256",
          "internalType": "uint256"
        }
      ],
      "outputs": [],
      "stateMutability": "nonpayable"
    },
    {
      "type": "function",
      "name": "balanceOf",
      "inputs": [
        {
          "name": "owner",
          "type": "address",
          "internalType": "address"
        }
      ],
      "outputs": [
        {
          "name": "",
          "type": "uint256",
          "internalType": "uint256"
        }
      ],
      "stateMutability": "view"
    },
    {
      "type": "function",
      "name": "createColors",
      "inputs": [
        {
          "name": "randomNum",
          "type": "bytes32",
          "internalType": "bytes32"
        }
      ],
      "outputs": [
        {
          "name": "",
          "type": "uint8[3]",
          "internalType": "uint8[3]"
        }
      ],
      "stateMutability": "pure"
    },
    {
      "type": "function",
      "name": "descriptor",
      "inputs": [],
      "outputs": [
        {
          "name": "",
          "type": "address",
          "internalType": "contract NounsDescriptorV2"
        }
      ],
      "stateMutability": "view"
    },
    {
      "type": "function",
      "name": "getAddressRandomness",
      "inputs": [
        {
          "name": "_a",
          "type": "address",
          "internalType": "address"
        }
      ],
      "outputs": [
        {
          "name": "",
          "type": "bytes32",
          "internalType": "bytes32"
        }
      ],
      "stateMutability": "pure"
    },
    {
      "type": "function",
      "name": "getApproved",
      "inputs": [
        {
          "name": "tokenId",
          "type": "uint256",
          "internalType": "uint256"
        }
      ],
      "outputs": [
        {
          "name": "",
          "type": "address",
          "internalType": "address"
        }
      ],
      "stateMutability": "view"
    },
    {
      "type": "function",
      "name": "getHeadImage",
      "inputs": [
        {
          "name": "_a",
          "type": "address",
          "internalType": "address"
        }
      ],
      "outputs": [
        {
          "name": "",
          "type": "bytes",
          "internalType": "bytes"
        }
      ],
      "stateMutability": "pure"
    },
    {
      "type": "function",
      "name": "getHeadSvg",
      "inputs": [
        {
          "name": "_a",
          "type": "address",
          "internalType": "address"
        }
      ],
      "outputs": [
        {
          "name": "",
          "type": "string",
          "internalType": "string"
        }
      ],
      "stateMutability": "view"
    },
    {
      "type": "function",
      "name": "isApprovedForAll",
      "inputs": [
        {
          "name": "owner",
          "type": "address",
          "internalType": "address"
        },
        {
          "name": "operator",
          "type": "address",
          "internalType": "address"
        }
      ],
      "outputs": [
        {
          "name": "",
          "type": "bool",
          "internalType": "bool"
        }
      ],
      "stateMutability": "view"
    },
    {
      "type": "function",
      "name": "mint",
      "inputs": [
        {
          "name": "_to",
          "type": "address",
          "internalType": "address"
        }
      ],
      "outputs": [],
      "stateMutability": "payable"
    },
    {
      "type": "function",
      "name": "moreRandom",
      "inputs": [
        {
          "name": "randomNum",
          "type": "bytes32",
          "internalType": "bytes32"
        }
      ],
      "outputs": [
        {
          "name": "",
          "type": "bytes32",
          "internalType": "bytes32"
        }
      ],
      "stateMutability": "pure"
    },
    {
      "type": "function",
      "name": "name",
      "inputs": [],
      "outputs": [
        {
          "name": "",
          "type": "string",
          "internalType": "string"
        }
      ],
      "stateMutability": "view"
    },
    {
      "type": "function",
      "name": "ownerOf",
      "inputs": [
        {
          "name": "tokenId",
          "type": "uint256",
          "internalType": "uint256"
        }
      ],
      "outputs": [
        {
          "name": "",
          "type": "address",
          "internalType": "address"
        }
      ],
      "stateMutability": "view"
    },
    {
      "type": "function",
      "name": "renderNounishBlockie",
      "inputs": [
        {
          "name": "_a",
          "type": "address",
          "internalType": "address"
        },
        {
          "name": "_seed",
          "type": "tuple",
          "internalType": "struct INounsSeeder.Seed",
          "components": [
            {
              "name": "background",
              "type": "uint48",
              "internalType": "uint48"
            },
            {
              "name": "body",
              "type": "uint48",
              "internalType": "uint48"
            },
            {
              "name": "accessory",
              "type": "uint48",
              "internalType": "uint48"
            },
            {
              "name": "head",
              "type": "uint48",
              "internalType": "uint48"
            },
            {
              "name": "glasses",
              "type": "uint48",
              "internalType": "uint48"
            }
          ]
        }
      ],
      "outputs": [
        {
          "name": "",
          "type": "string",
          "internalType": "string"
        }
      ],
      "stateMutability": "view"
    },
    {
      "type": "function",
      "name": "reverseArray",
      "inputs": [
        {
          "name": "_array",
          "type": "uint8[8]",
          "internalType": "uint8[8]"
        }
      ],
      "outputs": [
        {
          "name": "",
          "type": "uint8[8]",
          "internalType": "uint8[8]"
        }
      ],
      "stateMutability": "pure"
    },
    {
      "type": "function",
      "name": "safeTransferFrom",
      "inputs": [
        {
          "name": "from",
          "type": "address",
          "internalType": "address"
        },
        {
          "name": "to",
          "type": "address",
          "internalType": "address"
        },
        {
          "name": "tokenId",
          "type": "uint256",
          "internalType": "uint256"
        }
      ],
      "outputs": [],
      "stateMutability": "nonpayable"
    },
    {
      "type": "function",
      "name": "safeTransferFrom",
      "inputs": [
        {
          "name": "from",
          "type": "address",
          "internalType": "address"
        },
        {
          "name": "to",
          "type": "address",
          "internalType": "address"
        },
        {
          "name": "tokenId",
          "type": "uint256",
          "internalType": "uint256"
        },
        {
          "name": "data",
          "type": "bytes",
          "internalType": "bytes"
        }
      ],
      "outputs": [],
      "stateMutability": "nonpayable"
    },
    {
      "type": "function",
      "name": "seeder",
      "inputs": [],
      "outputs": [
        {
          "name": "",
          "type": "address",
          "internalType": "contract INounsSeeder"
        }
      ],
      "stateMutability": "view"
    },
    {
      "type": "function",
      "name": "seeds",
      "inputs": [
        {
          "name": "",
          "type": "uint256",
          "internalType": "uint256"
        }
      ],
      "outputs": [
        {
          "name": "background",
          "type": "uint48",
          "internalType": "uint48"
        },
        {
          "name": "body",
          "type": "uint48",
          "internalType": "uint48"
        },
        {
          "name": "accessory",
          "type": "uint48",
          "internalType": "uint48"
        },
        {
          "name": "head",
          "type": "uint48",
          "internalType": "uint48"
        },
        {
          "name": "glasses",
          "type": "uint48",
          "internalType": "uint48"
        }
      ],
      "stateMutability": "view"
    },
    {
      "type": "function",
      "name": "setApprovalForAll",
      "inputs": [
        {
          "name": "operator",
          "type": "address",
          "internalType": "address"
        },
        {
          "name": "approved",
          "type": "bool",
          "internalType": "bool"
        }
      ],
      "outputs": [],
      "stateMutability": "nonpayable"
    },
    {
      "type": "function",
      "name": "supportsInterface",
      "inputs": [
        {
          "name": "interfaceId",
          "type": "bytes4",
          "internalType": "bytes4"
        }
      ],
      "outputs": [
        {
          "name": "",
          "type": "bool",
          "internalType": "bool"
        }
      ],
      "stateMutability": "view"
    },
    {
      "type": "function",
      "name": "symbol",
      "inputs": [],
      "outputs": [
        {
          "name": "",
          "type": "string",
          "internalType": "string"
        }
      ],
      "stateMutability": "view"
    },
    {
      "type": "function",
      "name": "tokenURI",
      "inputs": [
        {
          "name": "_tokenId",
          "type": "uint256",
          "internalType": "uint256"
        }
      ],
      "outputs": [
        {
          "name": "",
          "type": "string",
          "internalType": "string"
        }
      ],
      "stateMutability": "view"
    },
    {
      "type": "function",
      "name": "transferFrom",
      "inputs": [
        {
          "name": "from",
          "type": "address",
          "internalType": "address"
        },
        {
          "name": "to",
          "type": "address",
          "internalType": "address"
        },
        {
          "name": "tokenId",
          "type": "uint256",
          "internalType": "uint256"
        }
      ],
      "outputs": [],
      "stateMutability": "nonpayable"
    },
    {
      "type": "event",
      "name": "Approval",
      "inputs": [
        {
          "name": "owner",
          "type": "address",
          "indexed": true,
          "internalType": "address"
        },
        {
          "name": "approved",
          "type": "address",
          "indexed": true,
          "internalType": "address"
        },
        {
          "name": "tokenId",
          "type": "uint256",
          "indexed": true,
          "internalType": "uint256"
        }
      ],
      "anonymous": false
    },
    {
      "type": "event",
      "name": "ApprovalForAll",
      "inputs": [
        {
          "name": "owner",
          "type": "address",
          "indexed": true,
          "internalType": "address"
        },
        {
          "name": "operator",
          "type": "address",
          "indexed": true,
          "internalType": "address"
        },
        {
          "name": "approved",
          "type": "bool",
          "indexed": false,
          "internalType": "bool"
        }
      ],
      "anonymous": false
    },
    {
      "type": "event",
      "name": "TokenMinted",
      "inputs": [
        {
          "name": "to",
          "type": "address",
          "indexed": true,
          "internalType": "address"
        },
        {
          "name": "tokenId",
          "type": "uint256",
          "indexed": true,
          "internalType": "uint256"
        }
      ],
      "anonymous": false
    },
    {
      "type": "event",
      "name": "Transfer",
      "inputs": [
        {
          "name": "from",
          "type": "address",
          "indexed": true,
          "internalType": "address"
        },
        {
          "name": "to",
          "type": "address",
          "indexed": true,
          "internalType": "address"
        },
        {
          "name": "tokenId",
          "type": "uint256",
          "indexed": true,
          "internalType": "uint256"
        }
      ],
      "anonymous": false
    },
    {
      "type": "error",
      "name": "NoOwner",
      "inputs": [
        {
          "name": "tokenId",
          "type": "uint256",
          "internalType": "uint256"
        }
      ]
    }
  ],
  "bytecode": {
    "object": "0x60806040523480156200001157600080fd5b5060405162002f4938038062002f498339810160408190526200003491620000ef565b6040518060400160405280600f81526020016e4e6f756e697368426c6f636b69657360881b815250604051806040016040528060048152602001634e6f425360e01b81525081600090816200008a9190620001ce565b506001620000998282620001ce565b5050600680546001600160a01b039485166001600160a01b0319918216179091556007805493909416921691909117909155506200029a565b80516001600160a01b0381168114620000ea57600080fd5b919050565b600080604083850312156200010357600080fd5b6200010e83620000d2565b91506200011e60208401620000d2565b90509250929050565b634e487b7160e01b600052604160045260246000fd5b600181811c908216806200015257607f821691505b6020821081036200017357634e487b7160e01b600052602260045260246000fd5b50919050565b601f821115620001c9576000816000526020600020601f850160051c81016020861015620001a45750805b601f850160051c820191505b81811015620001c557828155600101620001b0565b5050505b505050565b81516001600160401b03811115620001ea57620001ea62000127565b6200020281620001fb84546200013d565b8462000179565b602080601f8311600181146200023a5760008415620002215750858301515b600019600386901b1c1916600185901b178555620001c5565b600085815260208120601f198616915b828110156200026b578886015182559484019460019091019084016200024a565b50858210156200028a5787850151600019600388901b60f8161c191681555b5050505050600190811b01905550565b612c9f80620002aa6000396000f3fe60806040526004361061014b5760003560e01c806370a08231116100b6578063c489ed551161006f578063c489ed55146103d1578063c87b56dd146103f1578063c87fe06314610411578063dc8ff96814610431578063e985e9c514610451578063f0503e801461049a57600080fd5b806370a082311461030f57806370a65b091461032f57806382cac7ac1461034f57806395d89b411461037c578063a22cb46514610391578063b88d4fde146103b157600080fd5b8063303e74df11610108578063303e74df1461024f5780633bc05d881461026f57806342842e0e1461029c5780636352211e146102bc578063684931ed146102dc5780636a627842146102fc57600080fd5b806301ffc9a71461015057806306fdde0314610185578063081812fc146101a7578063095ea7b3146101df57806316cfe1d91461020157806323b872dd1461022f575b600080fd5b34801561015c57600080fd5b5061017061016b366004611f5e565b610532565b60405190151581526020015b60405180910390f35b34801561019157600080fd5b5061019a610584565b60405161017c9190611fd2565b3480156101b357600080fd5b506101c76101c2366004611fe5565b610616565b6040516001600160a01b03909116815260200161017c565b3480156101eb57600080fd5b506101ff6101fa366004612013565b61063d565b005b34801561020d57600080fd5b5061022161021c36600461203f565b610757565b60405190815260200161017c565b34801561023b57600080fd5b506101ff61024a36600461205c565b610797565b34801561025b57600080fd5b506007546101c7906001600160a01b031681565b34801561027b57600080fd5b5061028f61028a366004612130565b6107c8565b60405161017c91906121bf565b3480156102a857600080fd5b506101ff6102b736600461205c565b610854565b3480156102c857600080fd5b506101c76102d7366004611fe5565b61086f565b3480156102e857600080fd5b506006546101c7906001600160a01b031681565b6101ff61030a36600461203f565b6108cf565b34801561031b57600080fd5b5061022161032a36600461203f565b6109e3565b34801561033b57600080fd5b5061019a61034a36600461203f565b610a69565b34801561035b57600080fd5b5061036f61036a366004611fe5565b610c0d565b60405161017c91906121f4565b34801561038857600080fd5b5061019a610cb5565b34801561039d57600080fd5b506101ff6103ac36600461221f565b610cc4565b3480156103bd57600080fd5b506101ff6103cc366004612285565b610cd3565b3480156103dd57600080fd5b5061019a6103ec36600461203f565b610d0b565b3480156103fd57600080fd5b5061019a61040c366004611fe5565b610f2e565b34801561041d57600080fd5b5061022161042c366004611fe5565b6111dd565b34801561043d57600080fd5b5061019a61044c366004612348565b6111f2565b34801561045d57600080fd5b5061017061046c3660046123eb565b6001600160a01b03918216600090815260056020908152604080832093909416825291909152205460ff1690565b3480156104a657600080fd5b506104f96104b5366004611fe5565b60096020526000908152604090205465ffffffffffff80821691600160301b8104821691600160601b8204811691600160901b8104821691600160c01b9091041685565b6040805165ffffffffffff968716815294861660208601529285169284019290925283166060830152909116608082015260a00161017c565b60006001600160e01b031982166380ac58cd60e01b148061056357506001600160e01b03198216635b5e139f60e01b145b8061057e57506301ffc9a760e01b6001600160e01b03198316145b92915050565b60606000805461059390612419565b80601f01602080910402602001604051908101604052809291908181526020018280546105bf90612419565b801561060c5780601f106105e15761010080835404028352916020019161060c565b820191906000526020600020905b8154815290600101906020018083116105ef57829003601f168201915b5050505050905090565b600061062182611336565b506000908152600460205260409020546001600160a01b031690565b60006106488261086f565b9050806001600160a01b0316836001600160a01b0316036106ba5760405162461bcd60e51b815260206004820152602160248201527f4552433732313a20617070726f76616c20746f2063757272656e74206f776e656044820152603960f91b60648201526084015b60405180910390fd5b336001600160a01b03821614806106d657506106d6813361046c565b6107485760405162461bcd60e51b815260206004820152603d60248201527f4552433732313a20617070726f76652063616c6c6572206973206e6f7420746f60448201527f6b656e206f776e6572206f7220617070726f76656420666f7220616c6c00000060648201526084016106b1565b6107528383611398565b505050565b6040516bffffffffffffffffffffffff19606083901b1660208201526000906034015b604051602081830303815290604052805190602001209050919050565b6107a13382611406565b6107bd5760405162461bcd60e51b81526004016106b190612453565b610752838383611485565b6107d0611eeb565b6107d8611eeb565b600060085b60018160ff161061084b57846107f46001836124b6565b60ff1660088110610807576108076124cf565b602002015183836008811061081e5761081e6124cf565b60ff909216602092909202015281610835816124e5565b9250508080610843906124fe565b9150506107dd565b50909392505050565b61075283838360405180602001604052806000815250610cd3565b6000818152600260205260408120546001600160a01b03168061057e5760405162461bcd60e51b8152602060048201526018602482015277115490cdcc8c4e881a5b9d985b1a59081d1bdad95b88125160421b60448201526064016106b1565b60006108da60085490565b90506108ea600880546001019055565b6108f482826115e9565b6108fd81611774565b6000828152600960209081526040808320845181549386015186840151606088015160809098015165ffffffffffff908116600160c01b0265ffffffffffff60c01b19998216600160901b0265ffffffffffff60901b19938316600160601b02939093166bffffffffffffffffffffffff60601b19948316600160301b026bffffffffffffffffffffffff199099169290951691909117969096179190911691909117179490941691909117909255905182916001600160a01b038516917fb9144c96c86541f6fa89c9f2f02495cccf4b08cd6643e26d34ee00aa586558a89190a35050565b60006001600160a01b038216610a4d5760405162461bcd60e51b815260206004820152602960248201527f4552433732313a2061646472657373207a65726f206973206e6f7420612076616044820152683634b21037bbb732b960b91b60648201526084016106b1565b506001600160a01b031660009081526003602052604090205490565b60606000610a7e610a7984610757565b611813565b905060606000604051602001610a94919061251b565b6040516020818303038152906040526005604051602001610ab5919061251b565b6040516020818303038152906040526018604051602001610ad6919061251b565b6040516020818303038152906040526014604051602001610af7919061251b565b6040516020818303038152906040526008604051602001610b18919061251b565b60408051601f1981840301815290829052610b399594939291602001612533565b60405160208183030381529060405290506000610b5861036a86610757565b905060005b610100811015610c0357826001604051602001610b7a919061251b565b6040516020818303038152906040528386846101008110610b9d57610b9d6124cf565b602002015160ff1660038110610bb557610bb56124cf565b6020020151604051602001610bca919061251b565b60408051601f1981840301815290829052610be993929160200161259e565b60408051601f198184030181529190529250600101610b5d565b5090949350505050565b610c15611f0a565b6000806000610c2385611974565b9095509250610c3185611974565b909550915060ff80831690841603610c5257610c4c85611974565b90955091505b610c5b85611974565b909550905060ff8381169082161480610c7957508060ff168260ff16145b15610c8d57610c8785611974565b90955090505b6040805160608101825260ff9485168152928416602084015292169181019190915292915050565b60606001805461059390612419565b610ccf3383836119a2565b5050565b610cdd3383611406565b610cf95760405162461bcd60e51b81526004016106b190612453565b610d0584848484611a70565b50505050565b606060006040518060a0016040528060768152602001612bf46076913990506000604051806040016040528060068152602001651e17b9bb339f60d11b81525090506000600760009054906101000a90046001600160a01b03166001600160a01b0316638ada6b0f6040518163ffffffff1660e01b8152600401602060405180830381865afa158015610da2573d6000803e3d6000fd5b505050506040513d601f19601f82011682018060405250810190610dc691906125e1565b90506000610dd386610a69565b6040805180820182528281526007549151635e16a2ff60e11b8152600060048201819052939450909160208301916001600160a01b039091169063bc2d45fe90602401600060405180830381865afa158015610e33573d6000803e3d6000fd5b505050506040513d6000823e601f3d908101601f19168201604052610e5b919081019061264e565b90526040516330a3764760e11b81529091506000906001600160a01b03851690636146ec8e90610e8f908590600401612683565b600060405180830381865afa158015610eac573d6000803e3d6000fd5b505050506040513d6000823e601f3d908101601f19168201604052610ed491908101906126c5565b9050610f02868287604051602001610eee9392919061259e565b604051602081830303815290604052611aa3565b604051602001610f12919061270e565b6040516020818303038152906040529650505050505050919050565b6000818152600960209081526040808320815160a081018352905465ffffffffffff8082168352600160301b8204811694830194909452600160601b8104841682840152600160901b81048416606080840191909152600160c01b909104909316608082015290516331a9108f60e11b815260048101859052919290913090636352211e90602401602060405180830381865afa158015610fd3573d6000803e3d6000fd5b505050506040513d601f19601f82011682018060405250810190610ff791906125e1565b90506001600160a01b0381166110235760405163cfd56a3360e01b8152600481018590526024016106b1565b6060806110308385611bf6565b6040516e4e6f756e69736820426c6f636b696560881b6020820152602f81018990529193509150600090604f0160408051601f19818403018152908290526402737bab7160dd1b6020830152602582018990527f2069732061206d656d626572206f6620746865204e6f756e7320436f6d6d756e60458301526269747960e81b6065830152915060009060680160408051601f198184030181526080830182528483526020838101829052838301879052606084018890526007548351638ada6b0f60e01b8152935192955073__$2c651c7e63e51a9d2ad70f25ee7fd4b02f$__936392ba0e90936001600160a01b0390921692638ada6b0f926004808401938290030181865afa158015611149573d6000803e3d6000fd5b505050506040513d601f19601f8201168201806040525081019061116d91906125e1565b836040518363ffffffff1660e01b815260040161118b9291906127d1565b600060405180830381865af41580156111a8573d6000803e3d6000fd5b505050506040513d6000823e601f3d908101601f191682016040526111d091908101906126c5565b9998505050505050505050565b60008160405160200161077a91815260200190565b60608060606112018585611bf6565b60408051808201825283815260208082018490526007548351638ada6b0f60e01b81529351959750939550909360009373__$2c651c7e63e51a9d2ad70f25ee7fd4b02f$__936322cc1ad6936001600160a01b0390921692638ada6b0f926004808401939192918290030181865afa158015611281573d6000803e3d6000fd5b505050506040513d601f19601f820116820180604052508101906112a591906125e1565b846040518363ffffffff1660e01b81526004016112c392919061285e565b600060405180830381865af41580156112e0573d6000803e3d6000fd5b505050506040513d6000823e601f3d908101601f1916820160405261130891908101906126c5565b90508060405160200161131b919061270e565b60405160208183030381529060405294505050505092915050565b6000818152600260205260409020546001600160a01b03166113955760405162461bcd60e51b8152602060048201526018602482015277115490cdcc8c4e881a5b9d985b1a59081d1bdad95b88125160421b60448201526064016106b1565b50565b600081815260046020526040902080546001600160a01b0319166001600160a01b03841690811790915581906113cd8261086f565b6001600160a01b03167f8c5be1e5ebec7d5bd14f71427d1e84f3dd0314c0f7b2291e5b200ac8c7c3b92560405160405180910390a45050565b6000806114128361086f565b9050806001600160a01b0316846001600160a01b0316148061145957506001600160a01b0380821660009081526005602090815260408083209388168352929052205460ff165b8061147d5750836001600160a01b031661147284610616565b6001600160a01b0316145b949350505050565b826001600160a01b03166114988261086f565b6001600160a01b0316146114be5760405162461bcd60e51b81526004016106b1906128a4565b6001600160a01b0382166115205760405162461bcd60e51b8152602060048201526024808201527f4552433732313a207472616e7366657220746f20746865207a65726f206164646044820152637265737360e01b60648201526084016106b1565b826001600160a01b03166115338261086f565b6001600160a01b0316146115595760405162461bcd60e51b81526004016106b1906128a4565b600081815260046020908152604080832080546001600160a01b03199081169091556001600160a01b0387811680865260038552838620805460001901905590871680865283862080546001019055868652600290945282852080549092168417909155905184937fddf252ad1be2c89b69c2b068fc378daa952ba7f163c4a11628f55a4df523b3ef91a4505050565b6001600160a01b03821661163f5760405162461bcd60e51b815260206004820181905260248201527f4552433732313a206d696e7420746f20746865207a65726f206164647265737360448201526064016106b1565b6000818152600260205260409020546001600160a01b0316156116a45760405162461bcd60e51b815260206004820152601c60248201527f4552433732313a20746f6b656e20616c7265616479206d696e7465640000000060448201526064016106b1565b6000818152600260205260409020546001600160a01b0316156117095760405162461bcd60e51b815260206004820152601c60248201527f4552433732313a20746f6b656e20616c7265616479206d696e7465640000000060448201526064016106b1565b6001600160a01b038216600081815260036020908152604080832080546001019055848352600290915280822080546001600160a01b0319168417905551839291907fddf252ad1be2c89b69c2b068fc378daa952ba7f163c4a11628f55a4df523b3ef908290a45050565b6040805160a081018252600080825260208201819052818301819052606082018190526080820152600654600754925163422e2e9960e01b8152600481018590526001600160a01b0393841660248201529192169063422e2e999060440160a060405180830381865afa1580156117ef573d6000803e3d6000fd5b505050506040513d601f19601f8201168201806040525081019061057e91906128e9565b61181b611f28565b611823611f28565b60005b60108160ff16101561196d5761183a611eeb565b60005b60088160ff1610156118e057611852866111dd565b955060006103e8611864606489612979565b61186f90601761298d565b61187991906129a4565b905080838360ff1660088110611891576118916124cf565b60ff90921660209290920201528085836118ac8760106129b8565b6118b691906129d4565b60ff1661010081106118ca576118ca6124cf565b60ff90921660209290920201525060010161183d565b5060006118ec826107c8565b905060005b60088160ff16101561196257818160ff1660088110611912576119126124cf565b602002015185826119248760106129b8565b61192e91906129d4565b6119399060086129d4565b60ff16610100811061194d5761194d6124cf565b60ff90921660209290920201526001016118f1565b505050600101611826565b5092915050565b600080611980836111dd565b92508261198e60ed82612979565b6119999060026129d4565b91509150915091565b816001600160a01b0316836001600160a01b031603611a035760405162461bcd60e51b815260206004820152601960248201527f4552433732313a20617070726f766520746f2063616c6c65720000000000000060448201526064016106b1565b6001600160a01b03838116600081815260056020908152604080832094871680845294825291829020805460ff191686151590811790915591519182527f17307eab39ab6107e8899845ad3d59bd9653f200f220920489ca2b5937696c31910160405180910390a3505050565b611a7b848484611485565b611a8784848484611d3d565b610d055760405162461bcd60e51b81526004016106b1906129ed565b60608151600003611ac257505060408051602081019091526000815290565b6000604051806060016040528060408152602001612bb46040913990506000600384516002611af19190612a3f565b611afb91906129a4565b611b0690600461298d565b67ffffffffffffffff811115611b1e57611b1e61209d565b6040519080825280601f01601f191660200182016040528015611b48576020820181803683370190505b509050600182016020820185865187015b80821015611bb4576003820191508151603f8160121c168501518453600184019350603f81600c1c168501518453600184019350603f8160061c168501518453600184019350603f8116850151845350600183019250611b59565b5050600386510660018114611bd05760028114611be357611beb565b603d6001830353603d6002830353611beb565b603d60018303535b509195945050505050565b6060806000611c0484611e3e565b90506000611c1186610a69565b6040805180820182528281526007549151635e16a2ff60e11b8152600060048201529293509160208301916001600160a01b03169063bc2d45fe90602401600060405180830381865afa158015611c6c573d6000803e3d6000fd5b505050506040513d6000823e601f3d908101601f19168201604052611c94919081019061264e565b81525082600281518110611caa57611caa6124cf565b602090810291909101015260075485516040516304bde4dd60e01b815265ffffffffffff909116600482015283916001600160a01b0316906304bde4dd90602401600060405180830381865afa158015611d08573d6000803e3d6000fd5b505050506040513d6000823e601f3d908101601f19168201604052611d3091908101906126c5565b9350935050509250929050565b60006001600160a01b0384163b15611e3357604051630a85bd0160e11b81526001600160a01b0385169063150b7a0290611d81903390899088908890600401612a52565b6020604051808303816000875af1925050508015611dbc575060408051601f3d908101601f19168201909252611db991810190612a85565b60015b611e19573d808015611dea576040519150601f19603f3d011682016040523d82523d6000602084013e611def565b606091505b508051600003611e115760405162461bcd60e51b81526004016106b1906129ed565b805181602001fd5b6001600160e01b031916630a85bd0160e11b14905061147d565b506001949350505050565b6007546040805163bf61df1b60e01b8152835165ffffffffffff90811660048301526020850151811660248301529184015182166044820152606084810151831660648301526080850151909216608482015290916001600160a01b03169063bf61df1b9060a401600060405180830381865afa158015611ec3573d6000803e3d6000fd5b505050506040513d6000823e601f3d908101601f1916820160405261057e9190810190612aa2565b6040518061010001604052806008906020820280368337509192915050565b60405180606001604052806003906020820280368337509192915050565b604051806120000160405280610100906020820280368337509192915050565b6001600160e01b03198116811461139557600080fd5b600060208284031215611f7057600080fd5b8135611f7b81611f48565b9392505050565b60005b83811015611f9d578181015183820152602001611f85565b50506000910152565b60008151808452611fbe816020860160208601611f82565b601f01601f19169290920160200192915050565b602081526000611f7b6020830184611fa6565b600060208284031215611ff757600080fd5b5035919050565b6001600160a01b038116811461139557600080fd5b6000806040838503121561202657600080fd5b823561203181611ffe565b946020939093013593505050565b60006020828403121561205157600080fd5b8135611f7b81611ffe565b60008060006060848603121561207157600080fd5b833561207c81611ffe565b9250602084013561208c81611ffe565b929592945050506040919091013590565b634e487b7160e01b600052604160045260246000fd5b60405160a0810167ffffffffffffffff811182821017156120d6576120d661209d565b60405290565b6040805190810167ffffffffffffffff811182821017156120d6576120d661209d565b604051601f8201601f1916810167ffffffffffffffff811182821017156121285761212861209d565b604052919050565b600061010080838503121561214457600080fd5b83601f84011261215357600080fd5b60405181810181811067ffffffffffffffff821117156121755761217561209d565b60405290830190808583111561218a57600080fd5b845b838110156121b457803560ff811681146121a65760008081fd5b82526020918201910161218c565b509095945050505050565b6101008101818360005b60088110156121eb57815160ff168352602092830192909101906001016121c9565b50505092915050565b60608101818360005b60038110156121eb57815160ff168352602092830192909101906001016121fd565b6000806040838503121561223257600080fd5b823561223d81611ffe565b91506020830135801515811461225257600080fd5b809150509250929050565b600067ffffffffffffffff8211156122775761227761209d565b50601f01601f191660200190565b6000806000806080858703121561229b57600080fd5b84356122a681611ffe565b935060208501356122b681611ffe565b925060408501359150606085013567ffffffffffffffff8111156122d957600080fd5b8501601f810187136122ea57600080fd5b80356122fd6122f88261225d565b6120ff565b81815288602083850101111561231257600080fd5b8160208401602083013760006020838301015280935050505092959194509250565b65ffffffffffff8116811461139557600080fd5b60008082840360c081121561235c57600080fd5b833561236781611ffe565b925060a0601f198201121561237b57600080fd5b506123846120b3565b602084013561239281612334565b815260408401356123a281612334565b602082015260608401356123b581612334565b604082015260808401356123c881612334565b606082015260a08401356123db81612334565b6080820152919491935090915050565b600080604083850312156123fe57600080fd5b823561240981611ffe565b9150602083013561225281611ffe565b600181811c9082168061242d57607f821691505b60208210810361244d57634e487b7160e01b600052602260045260246000fd5b50919050565b6020808252602d908201527f4552433732313a2063616c6c6572206973206e6f7420746f6b656e206f776e6560408201526c1c881bdc88185c1c1c9bdd9959609a1b606082015260800190565b634e487b7160e01b600052601160045260246000fd5b60ff828116828216039081111561057e5761057e6124a0565b634e487b7160e01b600052603260045260246000fd5b6000600182016124f7576124f76124a0565b5060010190565b600060ff821680612511576125116124a0565b6000190192915050565b60f89190911b6001600160f81b031916815260010190565b60008651612545818460208b01611f82565b865190830190612559818360208b01611f82565b865191019061256c818360208a01611f82565b855191019061257f818360208901611f82565b8451910190612592818360208801611f82565b01979650505050505050565b600084516125b0818460208901611f82565b8451908301906125c4818360208901611f82565b84519101906125d7818360208801611f82565b0195945050505050565b6000602082840312156125f357600080fd5b8151611f7b81611ffe565b600061260c6122f88461225d565b905082815283838301111561262057600080fd5b611f7b836020830184611f82565b600082601f83011261263f57600080fd5b611f7b838351602085016125fe565b60006020828403121561266057600080fd5b815167ffffffffffffffff81111561267757600080fd5b61147d8482850161262e565b60208152600082516040602084015261269f6060840182611fa6565b90506020840151601f198483030160408501526126bc8282611fa6565b95945050505050565b6000602082840312156126d757600080fd5b815167ffffffffffffffff8111156126ee57600080fd5b8201601f810184136126ff57600080fd5b61147d848251602084016125fe565b7f646174613a696d6167652f7376672b786d6c3b6261736536342c00000000000081526000825161274681601a850160208701611f82565b91909101601a0192915050565b600082825180855260208086019550808260051b84010181860160005b848110156127c457601f1986840301895281516040815181865261279682870182611fa6565b915050858201519150848103868601526127b08183611fa6565b9a86019a9450505090830190600101612770565b5090979650505050505050565b60018060a01b03831681526040602082015260008251608060408401526127fb60c0840182611fa6565b90506020840151603f19808584030160608601526128198383611fa6565b925060408601519150808584030160808601526128368383611fa6565b925060608601519150808584030160a0860152506128548282612753565b9695505050505050565b60018060a01b038316815260406020820152600082516040808401526128876080840182612753565b90506020840151603f198483030160608501526128548282611fa6565b60208082526025908201527f4552433732313a207472616e736665722066726f6d20696e636f72726563742060408201526437bbb732b960d91b606082015260800190565b600060a082840312156128fb57600080fd5b6129036120b3565b825161290e81612334565b8152602083015161291e81612334565b6020820152604083015161293181612334565b6040820152606083015161294481612334565b6060820152608083015161295781612334565b60808201529392505050565b634e487b7160e01b600052601260045260246000fd5b60008261298857612988612963565b500690565b808202811582820484141761057e5761057e6124a0565b6000826129b3576129b3612963565b500490565b60ff818116838216029081169081811461196d5761196d6124a0565b60ff818116838216019081111561057e5761057e6124a0565b60208082526032908201527f4552433732313a207472616e7366657220746f206e6f6e20455243373231526560408201527131b2b4bb32b91034b6b83632b6b2b73a32b960711b606082015260800190565b8082018082111561057e5761057e6124a0565b6001600160a01b038581168252841660208201526040810183905260806060820181905260009061285490830184611fa6565b600060208284031215612a9757600080fd5b8151611f7b81611f48565b60006020808385031215612ab557600080fd5b825167ffffffffffffffff80821115612acd57600080fd5b818501915085601f830112612ae157600080fd5b815181811115612af357612af361209d565b8060051b612b028582016120ff565b9182528381018501918581019089841115612b1c57600080fd5b86860192505b838310156111d057825185811115612b3a5760008081fd5b86016040818c03601f1901811315612b525760008081fd5b612b5a6120dc565b8983015188811115612b6c5760008081fd5b612b7a8e8c8387010161262e565b825250908201519087821115612b905760008081fd5b612b9e8d8b8486010161262e565b818b0152845250509186019190860190612b2256fe4142434445464748494a4b4c4d4e4f505152535455565758595a6162636465666768696a6b6c6d6e6f707172737475767778797a303132333435363738392b2f3c7376672077696474683d2231363022206865696768743d22313630222076696577426f783d22383020353020313630203136302220786d6c6e733d22687474703a2f2f7777772e77332e6f72672f323030302f737667222073686170652d72656e646572696e673d2263726973704564676573223ea2646970667358221220537e86cc4a0a3f888b401f940c3d9f492320e309aaac8d55cfba1b3132a976cb64736f6c63430008180033",
    "linkReferences": {
      "src/contracts/libs/NFTDescriptorV2.sol": {
        "NFTDescriptorV2": [
          {
            "start": 5032,
            "length": 20
          },
          {
            "start": 5341,
            "length": 20
          }
        ]
      }
    }
  },
  "methodIdentifiers": {
    "approve(address,uint256)": "095ea7b3",
    "balanceOf(address)": "70a08231",
    "createColors(bytes32)": "82cac7ac",
    "descriptor()": "303e74df",
    "getAddressRandomness(address)": "16cfe1d9",
    "getApproved(uint256)": "081812fc",
    "getHeadImage(address)": "70a65b09",
    "getHeadSvg(address)": "c489ed55",
    "isApprovedForAll(address,address)": "e985e9c5",
    "mint(address)": "6a627842",
    "moreRandom(bytes32)": "c87fe063",
    "name()": "06fdde03",
    "ownerOf(uint256)": "6352211e",
    "renderNounishBlockie(address,(uint48,uint48,uint48,uint48,uint48))": "dc8ff968",
    "reverseArray(uint8[8])": "3bc05d88",
    "safeTransferFrom(address,address,uint256)": "42842e0e",
    "safeTransferFrom(address,address,uint256,bytes)": "b88d4fde",
    "seeder()": "684931ed",
    "seeds(uint256)": "f0503e80",
    "setApprovalForAll(address,bool)": "a22cb465",
    "supportsInterface(bytes4)": "01ffc9a7",
    "symbol()": "95d89b41",
    "tokenURI(uint256)": "c87b56dd",
    "transferFrom(address,address,uint256)": "23b872dd"
  },
  "id": 30
}